{
  "contractName": "dBank",
  "abi": [
    {
      "anonymous": false,
      "inputs": [
        {
          "indexed": true,
          "internalType": "uint256",
          "name": "date",
          "type": "uint256"
        },
        {
          "indexed": true,
          "internalType": "uint256",
          "name": "balance",
          "type": "uint256"
        }
      ],
      "name": "emergencyWithdrawal",
      "type": "event"
    },
    {
      "anonymous": false,
      "inputs": [
        {
          "indexed": true,
          "internalType": "uint256",
          "name": "date",
          "type": "uint256"
        },
        {
          "indexed": true,
          "internalType": "uint256",
          "name": "amount",
          "type": "uint256"
        },
        {
          "indexed": true,
          "internalType": "uint256",
          "name": "expiryTime",
          "type": "uint256"
        }
      ],
      "name": "saveNow",
      "type": "event"
    },
    {
      "anonymous": false,
      "inputs": [
        {
          "indexed": true,
          "internalType": "uint256",
          "name": "date",
          "type": "uint256"
        },
        {
          "indexed": true,
          "internalType": "uint256",
          "name": "amount",
          "type": "uint256"
        },
        {
          "indexed": true,
          "internalType": "uint256",
          "name": "balance",
          "type": "uint256"
        }
      ],
      "name": "withdrawal",
      "type": "event"
    },
    {
      "inputs": [],
      "name": "fees",
      "outputs": [
        {
          "internalType": "uint256",
          "name": "",
          "type": "uint256"
        }
      ],
      "stateMutability": "view",
      "type": "function",
      "constant": true
    },
    {
      "inputs": [],
      "name": "fees_address",
      "outputs": [
        {
          "internalType": "address",
          "name": "",
          "type": "address"
        }
      ],
      "stateMutability": "view",
      "type": "function",
      "constant": true
    },
    {
      "inputs": [],
      "name": "penalty_address",
      "outputs": [
        {
          "internalType": "address",
          "name": "",
          "type": "address"
        }
      ],
      "stateMutability": "view",
      "type": "function",
      "constant": true
    },
    {
      "inputs": [],
      "name": "tax",
      "outputs": [
        {
          "internalType": "uint256",
          "name": "",
          "type": "uint256"
        }
      ],
      "stateMutability": "view",
      "type": "function",
      "constant": true
    },
    {
      "inputs": [
        {
          "internalType": "uint256",
          "name": "",
          "type": "uint256"
        }
      ],
      "name": "userAccounts",
      "outputs": [
        {
          "internalType": "address",
          "name": "",
          "type": "address"
        }
      ],
      "stateMutability": "view",
      "type": "function",
      "constant": true
    },
    {
      "inputs": [
        {
          "internalType": "uint256",
          "name": "_expiredTime",
          "type": "uint256"
        }
      ],
      "name": "SaveNow",
      "outputs": [],
      "stateMutability": "payable",
      "type": "function",
      "payable": true
    },
    {
      "inputs": [
        {
          "internalType": "uint256",
          "name": "_amount",
          "type": "uint256"
        }
      ],
      "name": "withdraw",
      "outputs": [],
      "stateMutability": "nonpayable",
      "type": "function"
    },
    {
      "inputs": [],
      "name": "emergencyWithdraw",
      "outputs": [],
      "stateMutability": "nonpayable",
      "type": "function"
    },
    {
      "inputs": [],
      "name": "getContractBalance",
      "outputs": [
        {
          "internalType": "uint256",
          "name": "",
          "type": "uint256"
        }
      ],
      "stateMutability": "view",
      "type": "function",
      "constant": true
    },
    {
      "inputs": [
        {
          "internalType": "address",
          "name": "account",
          "type": "address"
        }
      ],
      "name": "getDepStatus",
      "outputs": [
        {
          "internalType": "bool",
          "name": "",
          "type": "bool"
        }
      ],
      "stateMutability": "view",
      "type": "function",
      "constant": true
    },
    {
      "inputs": [
        {
          "internalType": "address",
          "name": "account",
          "type": "address"
        }
      ],
      "name": "getStartTime",
      "outputs": [
        {
          "internalType": "uint256",
          "name": "",
          "type": "uint256"
        }
      ],
      "stateMutability": "view",
      "type": "function",
      "constant": true
    },
    {
      "inputs": [
        {
          "internalType": "address",
          "name": "account",
          "type": "address"
        }
      ],
      "name": "getExpiryTime",
      "outputs": [
        {
          "internalType": "uint256",
          "name": "",
          "type": "uint256"
        }
      ],
      "stateMutability": "view",
      "type": "function",
      "constant": true
    },
    {
      "inputs": [
        {
          "internalType": "address",
          "name": "account",
          "type": "address"
        }
      ],
      "name": "getBalance",
      "outputs": [
        {
          "internalType": "uint256",
          "name": "",
          "type": "uint256"
        }
      ],
      "stateMutability": "view",
      "type": "function",
      "constant": true
    },
    {
      "inputs": [],
      "name": "blockTime",
      "outputs": [
        {
          "internalType": "uint256",
          "name": "",
          "type": "uint256"
        }
      ],
      "stateMutability": "view",
      "type": "function",
      "constant": true
    },
    {
      "inputs": [],
      "name": "getUsers",
      "outputs": [
        {
          "internalType": "address[]",
          "name": "",
          "type": "address[]"
        }
      ],
      "stateMutability": "view",
      "type": "function",
      "constant": true
    },
    {
      "inputs": [
        {
          "internalType": "address",
          "name": "_newAddress",
          "type": "address"
        }
      ],
      "name": "setFeeAddress",
      "outputs": [
        {
          "internalType": "address",
          "name": "",
          "type": "address"
        }
      ],
      "stateMutability": "nonpayable",
      "type": "function"
    },
    {
      "inputs": [
        {
          "internalType": "uint256",
          "name": "_newfee",
          "type": "uint256"
        }
      ],
      "name": "setFees",
      "outputs": [
        {
          "internalType": "uint256",
          "name": "",
          "type": "uint256"
        }
      ],
      "stateMutability": "nonpayable",
      "type": "function"
    },
    {
      "inputs": [
        {
          "internalType": "address",
          "name": "_newAddress",
          "type": "address"
        }
      ],
      "name": "setPenaltyAddress",
      "outputs": [
        {
          "internalType": "address",
          "name": "",
          "type": "address"
        }
      ],
      "stateMutability": "nonpayable",
      "type": "function"
    },
    {
      "inputs": [
        {
          "internalType": "uint256",
          "name": "_newtax",
          "type": "uint256"
        }
      ],
      "name": "settax",
      "outputs": [
        {
          "internalType": "uint256",
          "name": "",
          "type": "uint256"
        }
      ],
      "stateMutability": "nonpayable",
      "type": "function"
    }
  ],
  "bytecode": "0x608060405234801561001057600080fd5b50611f4f806100206000396000f3fe6080604052600436106101135760003560e01c80638705fcd4116100a0578063c79543af11610064578063c79543af146103cd578063db2e21bc1461040a578063f415c0df14610421578063f8b2cb4f1461045e578063fb3c4c721461049b57610113565b80638705fcd4146102e157806399c8d5561461031e5780639af1d35a146103495780639dba559814610374578063a3a381351461039057610113565b806348b15166116100e757806348b15166146101e6578063522a693d14610211578063616d50581461023c5780636f9fb98a14610279578063805e3ec8146102a457610113565b8062ce8e3e146101185780632e1a7d4d146101435780632e8098c51461016c5780633d18678e146101a9575b600080fd5b34801561012457600080fd5b5061012d6104c6565b60405161013a9190611752565b60405180910390f35b34801561014f57600080fd5b5061016a600480360381019061016591906117af565b610554565b005b34801561017857600080fd5b50610193600480360381019061018e9190611808565b610ac8565b6040516101a09190611844565b60405180910390f35b3480156101b557600080fd5b506101d060048036038101906101cb91906117af565b610b11565b6040516101dd919061186e565b60405180910390f35b3480156101f257600080fd5b506101fb610b20565b604051610208919061186e565b60405180910390f35b34801561021d57600080fd5b50610226610b28565b6040516102339190611844565b60405180910390f35b34801561024857600080fd5b50610263600480360381019061025e91906117af565b610b4e565b6040516102709190611844565b60405180910390f35b34801561028557600080fd5b5061028e610b8d565b60405161029b919061186e565b60405180910390f35b3480156102b057600080fd5b506102cb60048036038101906102c69190611808565b610b9a565b6040516102d8919061186e565b60405180910390f35b3480156102ed57600080fd5b5061030860048036038101906103039190611808565b610be3565b6040516103159190611844565b60405180910390f35b34801561032a57600080fd5b50610333610c2c565b604051610340919061186e565b60405180910390f35b34801561035557600080fd5b5061035e610c32565b60405161036b919061186e565b60405180910390f35b61038e600480360381019061038991906117af565b610c38565b005b34801561039c57600080fd5b506103b760048036038101906103b29190611808565b61101d565b6040516103c491906118a4565b60405180910390f35b3480156103d957600080fd5b506103f460048036038101906103ef9190611808565b611073565b604051610401919061186e565b60405180910390f35b34801561041657600080fd5b5061041f6110bc565b005b34801561042d57600080fd5b50610448600480360381019061044391906117af565b6115d0565b604051610455919061186e565b60405180910390f35b34801561046a57600080fd5b5061048560048036038101906104809190611808565b6115df565b604051610492919061186e565b60405180910390f35b3480156104a757600080fd5b506104b0611627565b6040516104bd9190611844565b60405180910390f35b6060600480548060200260200160405190810160405280929190818152602001828054801561054a57602002820191906000526020600020905b8160009054906101000a900473ffffffffffffffffffffffffffffffffffffffff1673ffffffffffffffffffffffffffffffffffffffff1681526020019060010190808311610500575b5050505050905090565b600160003373ffffffffffffffffffffffffffffffffffffffff1673ffffffffffffffffffffffffffffffffffffffff16815260200190815260200160002060009054906101000a900460ff166105e0576040517f08c379a00000000000000000000000000000000000000000000000000000000081526004016105d790611942565b60405180910390fd5b6105e8610b20565b600360003373ffffffffffffffffffffffffffffffffffffffff1673ffffffffffffffffffffffffffffffffffffffff1681526020019081526020016000205410610668576040517f08c379a000000000000000000000000000000000000000000000000000000000815260040161065f906119d4565b60405180910390fd5b806000803373ffffffffffffffffffffffffffffffffffffffff1673ffffffffffffffffffffffffffffffffffffffff1681526020019081526020016000205410156106e9576040517f08c379a00000000000000000000000000000000000000000000000000000000081526004016106e090611a8c565b60405180910390fd5b806000803373ffffffffffffffffffffffffffffffffffffffff1673ffffffffffffffffffffffffffffffffffffffff16815260200190815260200160002060008282546107379190611adb565b9250508190555060006064600754836107509190611b0f565b61075a9190611b98565b90506000818361076a9190611adb565b905060003373ffffffffffffffffffffffffffffffffffffffff168260405161079290611bfa565b60006040518083038185875af1925050503d80600081146107cf576040519150601f19603f3d011682016040523d82523d6000602084013e6107d4565b606091505b5050905080610818576040517f08c379a000000000000000000000000000000000000000000000000000000000815260040161080f90611c5b565b60405180910390fd5b6000600860009054906101000a900473ffffffffffffffffffffffffffffffffffffffff1673ffffffffffffffffffffffffffffffffffffffff168460405161086090611bfa565b60006040518083038185875af1925050503d806000811461089d576040519150601f19603f3d011682016040523d82523d6000602084013e6108a2565b606091505b50509050806108e6576040517f08c379a00000000000000000000000000000000000000000000000000000000081526004016108dd90611c5b565b60405180910390fd5b60008060003373ffffffffffffffffffffffffffffffffffffffff1673ffffffffffffffffffffffffffffffffffffffff168152602001908152602001600020541415610a54576000600160003373ffffffffffffffffffffffffffffffffffffffff1673ffffffffffffffffffffffffffffffffffffffff16815260200190815260200160002060006101000a81548160ff02191690831515021790555060008060003373ffffffffffffffffffffffffffffffffffffffff1673ffffffffffffffffffffffffffffffffffffffff168152602001908152602001600020819055506000600260003373ffffffffffffffffffffffffffffffffffffffff1673ffffffffffffffffffffffffffffffffffffffff168152602001908152602001600020819055506000600360003373ffffffffffffffffffffffffffffffffffffffff1673ffffffffffffffffffffffffffffffffffffffff168152602001908152602001600020819055505b6000803373ffffffffffffffffffffffffffffffffffffffff1673ffffffffffffffffffffffffffffffffffffffff1681526020019081526020016000205483427f2009f8bca9bd48269b2b22de240454deacf3eaf59833d53bbc30969584245db360405160405180910390a45050505050565b600081600660006101000a81548173ffffffffffffffffffffffffffffffffffffffff021916908373ffffffffffffffffffffffffffffffffffffffff16021790559050919050565b60008160078190559050919050565b600042905090565b600860009054906101000a900473ffffffffffffffffffffffffffffffffffffffff1681565b60048181548110610b5e57600080fd5b906000526020600020016000915054906101000a900473ffffffffffffffffffffffffffffffffffffffff1681565b6000804790508091505090565b6000600260008373ffffffffffffffffffffffffffffffffffffffff1673ffffffffffffffffffffffffffffffffffffffff168152602001908152602001600020549050919050565b600081600860006101000a81548173ffffffffffffffffffffffffffffffffffffffff021916908373ffffffffffffffffffffffffffffffffffffffff16021790559050919050565b60055481565b60075481565b600160003373ffffffffffffffffffffffffffffffffffffffff1673ffffffffffffffffffffffffffffffffffffffff16815260200190815260200160002060009054906101000a900460ff1615610e0557600360003373ffffffffffffffffffffffffffffffffffffffff1673ffffffffffffffffffffffffffffffffffffffff16815260200190815260200160002054610cd38261164d565b1015610d14576040517f08c379a0000000000000000000000000000000000000000000000000000000008152600401610d0b90611ced565b60405180910390fd5b610d1c610b20565b600260003373ffffffffffffffffffffffffffffffffffffffff1673ffffffffffffffffffffffffffffffffffffffff16815260200190815260200160002081905550610d688161164d565b600360003373ffffffffffffffffffffffffffffffffffffffff1673ffffffffffffffffffffffffffffffffffffffff16815260200190815260200160002081905550346000803373ffffffffffffffffffffffffffffffffffffffff1673ffffffffffffffffffffffffffffffffffffffff1681526020019081526020016000206000828254610df99190611d0d565b92505081905550610fac565b346000803373ffffffffffffffffffffffffffffffffffffffff1673ffffffffffffffffffffffffffffffffffffffff1681526020019081526020016000206000828254610e539190611d0d565b9250508190555060018060003373ffffffffffffffffffffffffffffffffffffffff1673ffffffffffffffffffffffffffffffffffffffff16815260200190815260200160002060006101000a81548160ff021916908315150217905550610eb9610b20565b600260003373ffffffffffffffffffffffffffffffffffffffff1673ffffffffffffffffffffffffffffffffffffffff16815260200190815260200160002081905550610f058161164d565b600360003373ffffffffffffffffffffffffffffffffffffffff1673ffffffffffffffffffffffffffffffffffffffff168152602001908152602001600020819055506004339080600181540180825580915050600190039060005260206000200160009091909190916101000a81548173ffffffffffffffffffffffffffffffffffffffff021916908373ffffffffffffffffffffffffffffffffffffffff1602179055505b600360003373ffffffffffffffffffffffffffffffffffffffff1673ffffffffffffffffffffffffffffffffffffffff1681526020019081526020016000205434427f079bb986c964287e2713ae2060369dff473963a754da6deefb7bda198136ab8760405160405180910390a450565b6000600160008373ffffffffffffffffffffffffffffffffffffffff1673ffffffffffffffffffffffffffffffffffffffff16815260200190815260200160002060009054906101000a900460ff169050919050565b6000600360008373ffffffffffffffffffffffffffffffffffffffff1673ffffffffffffffffffffffffffffffffffffffff168152602001908152602001600020549050919050565b600160003373ffffffffffffffffffffffffffffffffffffffff1673ffffffffffffffffffffffffffffffffffffffff16815260200190815260200160002060009054906101000a900460ff16611148576040517f08c379a000000000000000000000000000000000000000000000000000000000815260040161113f90611942565b60405180910390fd5b611150610b20565b600360003373ffffffffffffffffffffffffffffffffffffffff1673ffffffffffffffffffffffffffffffffffffffff16815260200190815260200160002054116111d0576040517f08c379a00000000000000000000000000000000000000000000000000000000081526004016111c790611dfb565b60405180910390fd5b600060646005546000803373ffffffffffffffffffffffffffffffffffffffff1673ffffffffffffffffffffffffffffffffffffffff168152602001908152602001600020546112209190611b0f565b61122a9190611b98565b90506000816000803373ffffffffffffffffffffffffffffffffffffffff1673ffffffffffffffffffffffffffffffffffffffff168152602001908152602001600020546112789190611adb565b905060008060003373ffffffffffffffffffffffffffffffffffffffff1673ffffffffffffffffffffffffffffffffffffffff1681526020019081526020016000208190555060003373ffffffffffffffffffffffffffffffffffffffff16826040516112e490611bfa565b60006040518083038185875af1925050503d8060008114611321576040519150601f19603f3d011682016040523d82523d6000602084013e611326565b606091505b505090508061136a576040517f08c379a000000000000000000000000000000000000000000000000000000000815260040161136190611e67565b60405180910390fd5b6000600660009054906101000a900473ffffffffffffffffffffffffffffffffffffffff1673ffffffffffffffffffffffffffffffffffffffff16846040516113b290611bfa565b60006040518083038185875af1925050503d80600081146113ef576040519150601f19603f3d011682016040523d82523d6000602084013e6113f4565b606091505b5050905080611438576040517f08c379a000000000000000000000000000000000000000000000000000000000815260040161142f90611ef9565b60405180910390fd5b6000600160003373ffffffffffffffffffffffffffffffffffffffff1673ffffffffffffffffffffffffffffffffffffffff16815260200190815260200160002060006101000a81548160ff02191690831515021790555060008060003373ffffffffffffffffffffffffffffffffffffffff1673ffffffffffffffffffffffffffffffffffffffff168152602001908152602001600020819055506000600260003373ffffffffffffffffffffffffffffffffffffffff1673ffffffffffffffffffffffffffffffffffffffff168152602001908152602001600020819055506000600360003373ffffffffffffffffffffffffffffffffffffffff1673ffffffffffffffffffffffffffffffffffffffff168152602001908152602001600020819055506000803373ffffffffffffffffffffffffffffffffffffffff1673ffffffffffffffffffffffffffffffffffffffff16815260200190815260200160002054427f5cdbdaf1e54842ac25d0fdabf59c3fcbc7b62bcda372e3a8724a61443930a57260405160405180910390a350505050565b60008160058190559050919050565b60008060008373ffffffffffffffffffffffffffffffffffffffff1673ffffffffffffffffffffffffffffffffffffffff168152602001908152602001600020549050919050565b600660009054906101000a900473ffffffffffffffffffffffffffffffffffffffff1681565b6000814261165b9190611d0d565b9050919050565b600081519050919050565b600082825260208201905092915050565b6000819050602082019050919050565b600073ffffffffffffffffffffffffffffffffffffffff82169050919050565b60006116b98261168e565b9050919050565b6116c9816116ae565b82525050565b60006116db83836116c0565b60208301905092915050565b6000602082019050919050565b60006116ff82611662565b611709818561166d565b93506117148361167e565b8060005b8381101561174557815161172c88826116cf565b9750611737836116e7565b925050600181019050611718565b5085935050505092915050565b6000602082019050818103600083015261176c81846116f4565b905092915050565b600080fd5b6000819050919050565b61178c81611779565b811461179757600080fd5b50565b6000813590506117a981611783565b92915050565b6000602082840312156117c5576117c4611774565b5b60006117d38482850161179a565b91505092915050565b6117e5816116ae565b81146117f057600080fd5b50565b600081359050611802816117dc565b92915050565b60006020828403121561181e5761181d611774565b5b600061182c848285016117f3565b91505092915050565b61183e816116ae565b82525050565b60006020820190506118596000830184611835565b92915050565b61186881611779565b82525050565b6000602082019050611883600083018461185f565b92915050565b60008115159050919050565b61189e81611889565b82525050565b60006020820190506118b96000830184611895565b92915050565b600082825260208201905092915050565b7f796f752063757272656e746c79202068617665204e6f2061637469766520646560008201527f706f73697465206e6f772c206d616b652061206465706f736974650000000000602082015250565b600061192c603b836118bf565b9150611937826118d0565b604082019050919050565b6000602082019050818103600083015261195b8161191f565b9050919050565b7f4d617475726974792074696d6520666f72207769746864726177616c2068617360008201527f206e6f7420796574207265616368656400000000000000000000000000000000602082015250565b60006119be6030836118bf565b91506119c982611962565b604082019050919050565b600060208201905081810360008301526119ed816119b1565b9050919050565b7f616d6f756e7420796f757220747279696e6720746f207769746864726177206960008201527f732067726561746572207468616e20796f75722063757272656e742062616c6160208201527f6e63650000000000000000000000000000000000000000000000000000000000604082015250565b6000611a766043836118bf565b9150611a81826119f4565b606082019050919050565b60006020820190508181036000830152611aa581611a69565b9050919050565b7f4e487b7100000000000000000000000000000000000000000000000000000000600052601160045260246000fd5b6000611ae682611779565b9150611af183611779565b925082821015611b0457611b03611aac565b5b828203905092915050565b6000611b1a82611779565b9150611b2583611779565b9250817fffffffffffffffffffffffffffffffffffffffffffffffffffffffffffffffff0483118215151615611b5e57611b5d611aac565b5b828202905092915050565b7f4e487b7100000000000000000000000000000000000000000000000000000000600052601260045260246000fd5b6000611ba382611779565b9150611bae83611779565b925082611bbe57611bbd611b69565b5b828204905092915050565b600081905092915050565b50565b6000611be4600083611bc9565b9150611bef82611bd4565b600082019050919050565b6000611c0582611bd7565b9150819050919050565b7f4661696c656420746f2073656e64204574686572000000000000000000000000600082015250565b6000611c456014836118bf565b9150611c5082611c0f565b602082019050919050565b60006020820190508181036000830152611c7481611c38565b9050919050565b7f796f7572206e65772073746172742074696d65206973206c6f7765722074686160008201527f6e20796f75722070726576696f75732067657445787069727954696d65000000602082015250565b6000611cd7603d836118bf565b9150611ce282611c7b565b604082019050919050565b60006020820190508181036000830152611d0681611cca565b9050919050565b6000611d1882611779565b9150611d2383611779565b9250827fffffffffffffffffffffffffffffffffffffffffffffffffffffffffffffffff03821115611d5857611d57611aac565b5b828201905092915050565b7f41766f6964206265696e672c207461786564207573652074686520776974686460008201527f726177206d6574686f6420796f75722074696d656c6f636b206861732065787060208201527f6972656421210000000000000000000000000000000000000000000000000000604082015250565b6000611de56046836118bf565b9150611df082611d63565b606082019050919050565b60006020820190508181036000830152611e1481611dd8565b9050919050565b7f4661696c656420746f2073656e64204574686572207573657200000000000000600082015250565b6000611e516019836118bf565b9150611e5c82611e1b565b602082019050919050565b60006020820190508181036000830152611e8081611e44565b9050919050565b7f4661696c656420746f2073656e6420457468657220746f2070656e616c74795f60008201527f6164647265737300000000000000000000000000000000000000000000000000602082015250565b6000611ee36027836118bf565b9150611eee82611e87565b604082019050919050565b60006020820190508181036000830152611f1281611ed6565b905091905056fea26469706673582212203d0c06b6d33b0535b9be4bfe8c21193244d46e1997d5667cd553f5ebe298c51264736f6c634300080b0033",
  "immutableReferences": {},
  "source": "// SPDX-License-Identifier: GPL-3.0\r\n\r\npragma solidity >=0.7.0 <0.9.0;\r\n//import \"@chainlink/contracts/src/v0.8/interfaces/AggregatorV3Interface.sol\";\r\n\r\n contract dBank {\r\n\r\n      mapping(address=>uint256) private balance;\r\n      mapping(address=>bool) private isDeposited;\r\n      mapping(address => uint256) private startTime;\r\n      mapping(address => uint256) private expiredTime;\r\n    address[] public userAccounts;\r\n\r\n    uint256 public tax;\r\n    address public  penalty_address;\r\n    uint256 public fees;\r\n    address public fees_address;\r\n\r\n    event saveNow(\r\n        uint indexed date, uint256 indexed amount, uint256 indexed expiryTime\r\n    );\r\n\r\n    event withdrawal(\r\n        uint indexed date, uint256 indexed amount, uint256 indexed balance\r\n    );\r\n\r\n    event emergencyWithdrawal(\r\n        uint indexed date, uint256 indexed balance \r\n    );\r\n\r\n\r\n\r\n     function SaveNow( uint256 _expiredTime) public payable {\r\n         //uint256 minimumUsd = 50*10**18;\r\n        //require(getConvertionRate(msg.value)>=minimumUsd, \"your savings must be greater than 50usd\");\r\n      if(isDeposited[msg.sender]){\r\n          require(getTime(_expiredTime) >= expiredTime[msg.sender], 'your new start time is lower than your previous getExpiryTime');\r\n          startTime[msg.sender]=blockTime();\r\n          expiredTime[msg.sender]=getTime(_expiredTime);\r\n          balance[msg.sender]+=msg.value;\r\n\r\n      }\r\n      else{\r\n       balance[msg.sender]+=msg.value;\r\n       isDeposited[msg.sender]=true;\r\n       startTime[msg.sender]=blockTime();\r\n       expiredTime[msg.sender]=getTime(_expiredTime);\r\n       userAccounts.push(msg.sender);\r\n        }\r\n\r\n        emit saveNow(block.timestamp, msg.value,expiredTime[msg.sender]);\r\n\r\n}\r\n\r\n      function withdraw(uint256 _amount) public {\r\n        // Note that \"to\" is declared as payable\r\n        require(isDeposited[msg.sender], 'you currently  have No active deposite now, make a deposite');\r\n        require(expiredTime[msg.sender] <blockTime(), \"Maturity time for withdrawal has not yet reached\");\r\n        require(balance[msg.sender] >= _amount,\"amount your trying to withdraw is greater than your current balance\");\r\n        // apply fee for transaction      \r\n        balance[msg.sender] -=_amount;\r\n        uint256 taxedAmount =_amount * fees/100;\r\n        uint256 newAmount= _amount-taxedAmount;\r\n        \r\n        (bool success, ) = msg.sender.call{value: newAmount}(\"\");\r\n        require(success, \"Failed to send Ether\");\r\n        (bool good, ) = fees_address.call{value: taxedAmount}(\"\");\r\n        require(good, \"Failed to send Ether\");\r\n        if(balance[msg.sender]==0){\r\n            isDeposited[msg.sender]=false;\r\n            balance[msg.sender]=0;\r\n            startTime[msg.sender]=0;\r\n            expiredTime[msg.sender]=0;\r\n        \r\n        }\r\n        emit withdrawal(block.timestamp, newAmount, balance[msg.sender]);\r\n    }\r\n\r\n    function emergencyWithdraw() public {\r\n        // Note that \"to\" is declared as payable\r\n        require(isDeposited[msg.sender], 'you currently  have No active deposite now, make a deposite');\r\n        require(expiredTime[msg.sender] > blockTime(), 'Avoid being, taxed use the withdraw method your timelock has expired!!');\r\n        // apply fee for transaction      \r\n        uint256 penaltyAmount = balance[msg.sender]*tax/100;\r\n        uint256 newAmount= balance[msg.sender] - penaltyAmount;\r\n        balance[msg.sender]=0;\r\n        (bool success, ) = msg.sender.call{value: newAmount}(\"\");\r\n        require(success, \"Failed to send Ether user\");\r\n        (bool good, ) = penalty_address.call{value: penaltyAmount}(\"\");\r\n        require(good, \"Failed to send Ether to penalty_address\");   \r\n        isDeposited[msg.sender]=false;\r\n        balance[msg.sender]=0;\r\n        startTime[msg.sender]=0;\r\n        expiredTime[msg.sender]=0;\r\n\r\n        emit emergencyWithdrawal(block.timestamp,  balance[msg.sender]);\r\n        \r\n    }\r\n\r\n\r\n\r\n    //    function getPrice()public view returns (uint256){\r\n    //     AggregatorV3Interface priceFeed = AggregatorV3Interface(0x9326BFA02ADD2366b30bacB125260Af641031331);\r\n    //     (,int price,,,\r\n    //     )= priceFeed.latestRoundData();\r\n    //     return uint256(price*1000000000);\r\n    // }\r\n\r\n\r\n    // function getConvertionRate(uint256 ethAmount) private view returns(uint256){\r\n    //     uint256 ethPrice=getPrice();\r\n    //     uint256 ethAmountInUSD =(ethPrice * ethAmount)/10**17;\r\n    //     return ethAmountInUSD;\r\n    // }\r\n\r\n  \r\n\r\n    function getContractBalance()public view returns (uint256){\r\n       uint256 contbalance=address(this).balance;\r\n        return contbalance;\r\n    }\r\n\r\n\r\n     function getDepStatus(address account) public view returns (bool){\r\n      \r\n      return isDeposited[account];\r\n     }\r\n     \r\n     function getStartTime(address account) public view returns (uint256){\r\n      \r\n      return startTime[account];\r\n     }\r\n\r\n     \r\n     function getExpiryTime(address account) public view returns (uint256){\r\n      \r\n      return expiredTime[account];\r\n     }\r\n     \r\n     function getBalance(address account) public view returns (uint256){\r\n      \r\n      return balance[account];\r\n     }\r\n\r\n\r\n    function blockTime() public view returns (uint256){\r\n\r\n         return block.timestamp;\r\n\r\n    }\r\n\r\n\r\n   \r\n    function getTime (uint256 _expiredTime) private view returns(uint256 time){\r\n        return block.timestamp + uint256 (_expiredTime);\r\n    }\r\n\r\n     function getUsers()public view returns(address  [] memory){\r\n        return userAccounts;\r\n    }\r\n\r\n\r\n    function setFeeAddress(address _newAddress) external returns(address){\r\n        return fees_address=_newAddress ;\r\n    } \r\n  function setFees(uint256 _newfee) external returns(uint256){\r\n        return fees=_newfee ;\r\n    } \r\n\r\n     function setPenaltyAddress(address _newAddress) external returns(address){\r\n        return penalty_address=_newAddress ;\r\n    } \r\n  function settax(uint256 _newtax) external returns(uint256){\r\n        return tax=_newtax ;\r\n    } \r\n\r\n\r\n\r\n }\r\n\r\n\r\n\r\n\r\n\r\n\r\n\r\n ",
  "sourcePath": "C:\\Users\\OYOM\\Desktop\\javascript-class\\React\\bank-app\\contracts\\dBank.sol",
  "compiler": {
    "name": "solc",
    "version": "0.8.11+commit.d7f03943.Emscripten.clang"
  },
  "schemaVersion": "3.4.4",
  "updatedAt": "2021-12-22T19:04:07.181Z",
  "networkType": "ethereum",
  "devdoc": {
    "kind": "dev",
    "methods": {},
    "version": 1
  },
  "userdoc": {
    "kind": "user",
    "methods": {},
    "version": 1
  }
}